{
  "contractName": "TicTacToe",
  "abi": [
    {
      "constant": true,
      "inputs": [
        {
          "name": "",
          "type": "uint256"
        }
      ],
      "name": "games",
      "outputs": [
        {
          "name": "player1",
          "type": "address"
        },
        {
          "name": "player2",
          "type": "address"
        }
      ],
      "payable": false,
      "stateMutability": "view",
      "type": "function"
    },
    {
      "constant": false,
      "inputs": [
        {
          "name": "player2",
          "type": "address"
        }
      ],
      "name": "newGame",
      "outputs": [
        {
          "name": "",
          "type": "uint256"
        }
      ],
      "payable": false,
      "stateMutability": "nonpayable",
      "type": "function"
    },
    {
      "constant": true,
      "inputs": [
        {
          "name": "id",
          "type": "uint256"
        }
      ],
      "name": "getGame",
      "outputs": [
        {
          "name": "",
          "type": "address"
        },
        {
          "name": "",
          "type": "address"
        }
      ],
      "payable": false,
      "stateMutability": "view",
      "type": "function"
    },
    {
      "constant": false,
      "inputs": [
        {
          "name": "id",
          "type": "uint256"
        },
        {
          "name": "x",
          "type": "uint8"
        },
        {
          "name": "y",
          "type": "uint8"
        }
      ],
      "name": "move",
      "outputs": [],
      "payable": false,
      "stateMutability": "nonpayable",
      "type": "function"
    },
    {
      "constant": true,
      "inputs": [
        {
          "name": "id",
          "type": "uint256"
        }
      ],
      "name": "viewBoard",
      "outputs": [
        {
          "name": "",
          "type": "uint8[9]"
        }
      ],
      "payable": false,
      "stateMutability": "view",
      "type": "function"
    }
  ],
  "bytecode": "0x608060405234801561001057600080fd5b50611317806100206000396000f30060806040526004361061006d576000357c0100000000000000000000000000000000000000000000000000000000900463ffffffff168063117a5b90146100725780631517401314610112578063a2f77bcc1461017b578063bdc4d5081461021b578063c2e0b1e614610262575b600080fd5b34801561007e57600080fd5b5061009d600480360381019080803590602001909291905050506102b9565b604051808373ffffffffffffffffffffffffffffffffffffffff1673ffffffffffffffffffffffffffffffffffffffff1681526020018273ffffffffffffffffffffffffffffffffffffffff1673ffffffffffffffffffffffffffffffffffffffff1681526020019250505060405180910390f35b34801561011e57600080fd5b5061013d6004803603810190808035906020019092919050505061032c565b6040518082600960200280838360005b8381101561016857808201518184015260208101905061014d565b5050505090500191505060405180910390f35b34801561018757600080fd5b506101a6600480360381019080803590602001909291905050506103bd565b604051808373ffffffffffffffffffffffffffffffffffffffff1673ffffffffffffffffffffffffffffffffffffffff1681526020018273ffffffffffffffffffffffffffffffffffffffff1673ffffffffffffffffffffffffffffffffffffffff1681526020019250505060405180910390f35b34801561022757600080fd5b5061026060048036038101908080359060200190929190803560ff169060200190929190803560ff16906020019092919050505061044b565b005b34801561026e57600080fd5b506102a3600480360381019080803573ffffffffffffffffffffffffffffffffffffffff169060200190929190505050610aba565b6040518082815260200191505060405180910390f35b6000818154811015156102c857fe5b90600052602060002090600302016000915090508060010160009054906101000a900473ffffffffffffffffffffffffffffffffffffffff16908060020160009054906101000a900473ffffffffffffffffffffffffffffffffffffffff16905082565b610334611132565b60008281548110151561034357fe5b90600052602060002090600302016000016009806020026040519081016040528092919082600980156103b1576020028201916000905b82829054906101000a900460ff1660ff168152602001906001019060208260000104928301926001038202915080841161037a5790505b50505050509050919050565b6000806000838154811015156103cf57fe5b906000526020600020906003020160010160009054906101000a900473ffffffffffffffffffffffffffffffffffffffff1660008481548110151561041057fe5b906000526020600020906003020160020160009054906101000a900473ffffffffffffffffffffffffffffffffffffffff1691509150915091565b6000808481548110151561045b57fe5b906000526020600020906003020160010160009054906101000a900473ffffffffffffffffffffffffffffffffffffffff1673ffffffffffffffffffffffffffffffffffffffff166104ac85610c03565b73ffffffffffffffffffffffffffffffffffffffff1614151515610538576040517f08c379a000000000000000000000000000000000000000000000000000000000815260040180806020018281038252601a8152602001807f506c6179657220312068617320776f6e207468652067616d652e00000000000081525060200191505060405180910390fd5b60008481548110151561054757fe5b906000526020600020906003020160020160009054906101000a900473ffffffffffffffffffffffffffffffffffffffff1673ffffffffffffffffffffffffffffffffffffffff1661059885610c03565b73ffffffffffffffffffffffffffffffffffffffff1614151515610624576040517f08c379a000000000000000000000000000000000000000000000000000000000815260040180806020018281038252601a8152602001807f506c6179657220322068617320776f6e207468652067616d652e00000000000081525060200191505060405180910390fd5b600961062f85610edc565b60ff161015156106cd576040517f08c379a000000000000000000000000000000000000000000000000000000000815260040180806020018281038252602c8152602001807f546865726520617265206e6f206d6f7265206d6f7665732e205468652067616d81526020017f65206973206120647261772e000000000000000000000000000000000000000081525060400191505060405180910390fd5b8260ff166000111580156106e5575060028360ff1611155b1515610759576040517f08c379a000000000000000000000000000000000000000000000000000000000815260040180806020018281038252601f8152602001807f782076616c7565206d757374206265206265747765656e203020616e6420320081525060200191505060405180910390fd5b8160ff16600011158015610771575060028260ff1611155b15156107e5576040517f08c379a000000000000000000000000000000000000000000000000000000000815260040180806020018281038252601f8152602001807f792076616c7565206d757374206265206265747765656e203020616e6420320081525060200191505060405180910390fd5b60016107f085610f22565b60ff1614156108dd5760008481548110151561080857fe5b906000526020600020906003020160010160009054906101000a900473ffffffffffffffffffffffffffffffffffffffff1673ffffffffffffffffffffffffffffffffffffffff163373ffffffffffffffffffffffffffffffffffffffff161415156108dc576040517f08c379a00000000000000000000000000000000000000000000000000000000081526004018080602001828103825260138152602001807f49742773206e6f7420796f7572207475726e210000000000000000000000000081525060200191505060405180910390fd5b5b60026108e885610f22565b60ff1614156109d55760008481548110151561090057fe5b906000526020600020906003020160020160009054906101000a900473ffffffffffffffffffffffffffffffffffffffff1673ffffffffffffffffffffffffffffffffffffffff163373ffffffffffffffffffffffffffffffffffffffff161415156109d4576040517f08c379a00000000000000000000000000000000000000000000000000000000081526004018080602001828103825260138152602001807f49742773206e6f7420796f7572207475726e210000000000000000000000000081525060200191505060405180910390fd5b5b81836003020190506109e78482610f59565b1515610a5b576040517f08c379a000000000000000000000000000000000000000000000000000000000815260040180806020018281038252601c8152602001807f5468617420737061636520697320616c72656164792074616b656e210000000081525060200191505060405180910390fd5b610a6484610f22565b600085815481101515610a7357fe5b90600052602060002090600302016000018260ff16600981101515610a9457fe5b602091828204019190066101000a81548160ff021916908360ff16021790555050505050565b600080610ac5611132565b610acd611156565b60003393506060604051908101604052808481526020018573ffffffffffffffffffffffffffffffffffffffff1681526020018773ffffffffffffffffffffffffffffffffffffffff168152509150600160008390806001815401808255809150509060018203906000526020600020906003020160009091929091909150600082015181600001906009610b639291906111ab565b5060208201518160010160006101000a81548173ffffffffffffffffffffffffffffffffffffffff021916908373ffffffffffffffffffffffffffffffffffffffff16021790555060408201518160020160006101000a81548173ffffffffffffffffffffffffffffffffffffffff021916908373ffffffffffffffffffffffffffffffffffffffff160217905550505003905080945050505050919050565b6000610c0d611245565b60008061010060405190810160405280606060405190810160405280600060ff168152602001600160ff168152602001600260ff168152508152602001606060405190810160405280600360ff168152602001600460ff168152602001600560ff168152508152602001606060405190810160405280600660ff168152602001600760ff168152602001600860ff168152508152602001606060405190810160405280600060ff168152602001600360ff168152602001600660ff168152508152602001606060405190810160405280600160ff168152602001600460ff168152602001600760ff168152508152602001606060405190810160405280600260ff168152602001600560ff168152602001600860ff168152508152602001606060405190810160405280600060ff168152602001600460ff168152602001600860ff168152508152602001606060405190810160405280600260ff168152602001600460ff168152602001600660ff168152508152509250600091505b60088260ff161015610ed357610db585848460ff16600881101515610dab57fe5b6020020151610faf565b15610ec657600085815481101515610dc957fe5b9060005260206000209060030201600001838360ff16600881101515610deb57fe5b60200201516000600381101515610dfe57fe5b602002015160ff16600981101515610e1257fe5b602091828204019190069054906101000a900460ff16905060018160ff161415610e7e57600085815481101515610e4557fe5b906000526020600020906003020160010160009054906101000a900473ffffffffffffffffffffffffffffffffffffffff169350610ed4565b600085815481101515610e8d57fe5b906000526020600020906003020160020160009054906101000a900473ffffffffffffffffffffffffffffffffffffffff169350610ed4565b8180600101925050610d8a565b5b505050919050565b6000806000809150600090505b60098160ff161015610f1b57610eff8482610f59565b1515610f0e5781806001019250505b8080600101915050610ee9565b5050919050565b6000806002610f3084610edc565b60ff16811515610f3c57fe5b0660ff161415610f4f5760019050610f54565b600290505b919050565b600080600084815481101515610f6b57fe5b90600052602060002090600302016000018360ff16600981101515610f8c57fe5b602091828204019190069054906101000a900460ff1660ff161415905092915050565b60008083815481101515610fbf57fe5b9060005260206000209060030201600001826001600381101515610fdf57fe5b602002015160ff16600981101515610ff357fe5b602091828204019190069054906101000a900460ff1660ff1660008481548110151561101b57fe5b906000526020600020906003020160000183600060038110151561103b57fe5b602002015160ff1660098110151561104f57fe5b602091828204019190069054906101000a900460ff1660ff1614801561112a575060008381548110151561107f57fe5b906000526020600020906003020160000182600260038110151561109f57fe5b602002015160ff166009811015156110b357fe5b602091828204019190069054906101000a900460ff1660ff166000848154811015156110db57fe5b90600052602060002090600302016000018360016003811015156110fb57fe5b602002015160ff1660098110151561110f57fe5b602091828204019190069054906101000a900460ff1660ff16145b905092915050565b61012060405190810160405280600990602082028038833980820191505090505090565b6101606040519081016040528061116b611274565b8152602001600073ffffffffffffffffffffffffffffffffffffffff168152602001600073ffffffffffffffffffffffffffffffffffffffff1681525090565b826009601f016020900481019282156112345791602002820160005b8382111561120557835183826101000a81548160ff021916908360ff16021790555092602001926001016020816000010492830192600103026111c7565b80156112325782816101000a81549060ff0219169055600101602081600001049283019260010302611205565b505b5090506112419190611298565b5090565b610300604051908101604052806008905b61125e6112c8565b8152602001906001900390816112565790505090565b61012060405190810160405280600990602082028038833980820191505090505090565b6112c591905b808211156112c157600081816101000a81549060ff02191690555060010161129e565b5090565b90565b6060604051908101604052806003906020820280388339808201915050905050905600a165627a7a72305820c85ffaab371a4b94998d85af48f95cd64ad784d2802bd711f0cd702f7ce7c5c60029",
  "source": "pragma solidity ^0.4.24;\n\ncontract TicTacToe {\n\n\tstruct Game {\n\t\tuint8[9] board;\n\t\taddress player1;\n\t\taddress player2;\n\t}\n\n\tGame[] public games;\n\n\tfunction newGame(address player2) public returns(uint) {\n\t\t// Creates a new game with player1 set to msg.sender\n\t\t// TODO: FIX THIS require(games[game] == 0, \"A game with that name already exists!\");\n\t\t\n\t\taddress player1 = msg.sender;\n\t\tuint8[9] memory newBoard;\n\n\t\tGame memory game = Game(newBoard, player1, player2);\n\t\tuint id = games.push(game) - 1;\n\n\t\treturn(id);\n\t}\n\n\tfunction getGame(uint id) public view returns (address, address) {\n\t\treturn (games[id].player1, games[id].player2);\n\t}\n\n\tfunction _freeSpace(uint id, uint8 space) internal view returns (bool) {\n\t\t// Check if the space is free\n\t\treturn (games[id].board[space] != 0);\n\t}\n\n\tfunction _spacesFilled(uint id) internal view returns (uint8) {\n\t\t// Count the number of filled spaces on the board\n\t\tuint8 _n = 0;\n\t\tfor (uint8 i = 0; i < 9; i++) {\n\t\t\tif (!_freeSpace(id, i)) {\n\t\t\t\t_n++;\n\t\t\t}\n\t\t}\n\t}\n\n\tfunction _activePlayer(uint id) internal view returns (uint8) {\n\t\t// Compute the active player by counting how many spaces on the board have been filled\n\t\tif (_spacesFilled(id) % 2 == 0) {\n\t\t\treturn 1;\n\t\t}\n\t\treturn 2;\n\t}\n\n\tfunction _allTheSame(uint id, uint8[3] _triple) internal view returns (bool) {\n\t\treturn (games[id].board[_triple[0]] == games[id].board[_triple[1]] && games[id].board[_triple[1]] == games[id].board[_triple[2]]);\n\t}\n\n\tfunction _checkForVictory(uint id) internal view returns (address) {\n\t\tuint8[3][8] memory triples = [[0, 1, 2], [3, 4, 5], [6, 7, 8],\n\t\t\t           \t      [0, 3, 6], [1, 4, 7], [2, 5, 8],\n\t\t\t                      [0, 4, 8], [2, 4, 6]];\n\t\tfor (uint8 i = 0; i < 8; i++) {\n\t\t\tif (_allTheSame(id, triples[i])) {\n\t\t\t\tuint8 _winner = games[id].board[triples[i][0]];\n\t\t\t\tif (_winner == 1) {\n\t\t\t\t\treturn games[id].player1;\n\t\t\t\t}\n\t\t\t\treturn games[id].player2;\n\t\t\t}\n\t\t}\n\t}\n\n\tfunction move(uint id, uint8 x, uint8 y) public {\n\t\t// takes values of x and y between 0 and 2\n\t\trequire(_checkForVictory(id) != games[id].player1, \"Player 1 has won the game.\");  // Using two requires here because formating strings is a pain\n\t\trequire(_checkForVictory(id) != games[id].player2, \"Player 2 has won the game.\");  // and I want a nice error message when someone wins.\n\t\trequire(_spacesFilled(id) < 9, \"There are no more moves. The game is a draw.\");\n\t\trequire(0 <= x && x <= 2, \"x value must be between 0 and 2\");\n\t\trequire(0 <= y && y <= 2, \"y value must be between 0 and 2\");\n\t\tif (_activePlayer(id) == 1) {require(msg.sender == games[id].player1, \"It's not your turn!\");}\n\t\tif (_activePlayer(id) == 2) {require(msg.sender == games[id].player2, \"It's not your turn!\");}\n\t\tuint8 space = (3 * x) + y;\n\t\trequire(_freeSpace(id, space), \"That space is already taken!\");\n\t\tgames[id].board[space] = _activePlayer(id);\n\t}\n\n\tfunction viewBoard(uint id) public view returns (uint8[9]) {\n\t\treturn games[id].board;\n\t}\n}\n",
  "sourcePath": "/home/zbowen/TicTacToe/contracts/TicTacToe.sol",
  "compiler": {
    "name": "solc",
    "version": "0.4.24+commit.e67f0147.Emscripten.clang"
  },
  "schemaVersion": "2.0.1",
  "updatedAt": "2018-11-02T15:53:49.869Z"
}